{
  "contractName": "DelphiFactory",
  "abi": [
    {
      "inputs": [],
      "payable": false,
      "stateMutability": "nonpayable",
      "type": "constructor"
    },
    {
      "anonymous": false,
      "inputs": [
        {
          "indexed": false,
          "internalType": "address",
          "name": "fund",
          "type": "address"
        },
        {
          "indexed": false,
          "internalType": "uint256",
          "name": "",
          "type": "uint256"
        }
      ],
      "name": "FundCreated",
      "type": "event"
    },
    {
      "constant": true,
      "inputs": [
        {
          "internalType": "uint256",
          "name": "",
          "type": "uint256"
        }
      ],
      "name": "allFunds",
      "outputs": [
        {
          "internalType": "address",
          "name": "",
          "type": "address"
        }
      ],
      "payable": false,
      "stateMutability": "view",
      "type": "function"
    },
    {
      "constant": false,
      "inputs": [
        {
          "internalType": "uint256",
          "name": "token",
          "type": "uint256"
        }
      ],
      "name": "createFund",
      "outputs": [
        {
          "internalType": "address",
          "name": "fund",
          "type": "address"
        }
      ],
      "payable": false,
      "stateMutability": "nonpayable",
      "type": "function"
    },
    {
      "constant": true,
      "inputs": [],
      "name": "getAllFunds",
      "outputs": [
        {
          "internalType": "address[]",
          "name": "",
          "type": "address[]"
        }
      ],
      "payable": false,
      "stateMutability": "view",
      "type": "function"
    }
  ],
  "bytecode": "0x608060405234801561001057600080fd5b50610731806100206000396000f3fe608060405234801561001057600080fd5b50600436106100415760003560e01c80631c69b4641461004657806342fa0713146100a5578063e7a2843114610113575b600080fd5b61004e610181565b6040518080602001828103825283818151815260200191508051906020019060200280838360005b83811015610091578082015181840152602081019050610076565b505050509050019250505060405180910390f35b6100d1600480360360208110156100bb57600080fd5b810190808035906020019092919050505061020f565b604051808273ffffffffffffffffffffffffffffffffffffffff1673ffffffffffffffffffffffffffffffffffffffff16815260200191505060405180910390f35b61013f6004803603602081101561012957600080fd5b81019080803590602001909291905050506103ac565b604051808273ffffffffffffffffffffffffffffffffffffffff1673ffffffffffffffffffffffffffffffffffffffff16815260200191505060405180910390f35b6060600080548060200260200160405190810160405280929190818152602001828054801561020557602002820191906000526020600020905b8160009054906101000a900473ffffffffffffffffffffffffffffffffffffffff1673ffffffffffffffffffffffffffffffffffffffff16815260200190600101908083116101bb575b5050505050905090565b600080826040516020018082815260200191505060405160208183030381529060405280519060200120905060606040518060200161024d906103e8565b6020820181038252601f19601f820116604052509050818151602083016000f592508273ffffffffffffffffffffffffffffffffffffffff16638129fc1c6040518163ffffffff1660e01b8152600401600060405180830381600087803b1580156102b757600080fd5b505af11580156102cb573d6000803e3d6000fd5b5050505060008390806001815401808255809150509060018203906000526020600020016000909192909190916101000a81548173ffffffffffffffffffffffffffffffffffffffff021916908373ffffffffffffffffffffffffffffffffffffffff160217905550507fd73eaec0e4004d47dc7e75d1697ffa2474f0e33eaa6915e361ed2299e355dfc483600080549050604051808373ffffffffffffffffffffffffffffffffffffffff1673ffffffffffffffffffffffffffffffffffffffff1681526020018281526020019250505060405180910390a15050919050565b600081815481106103b957fe5b906000526020600020016000915054906101000a900473ffffffffffffffffffffffffffffffffffffffff1681565b610307806103f68339019056fe608060405234801561001057600080fd5b50336000806101000a81548173ffffffffffffffffffffffffffffffffffffffff021916908373ffffffffffffffffffffffffffffffffffffffff1602179055506102a7806100606000396000f3fe608060405234801561001057600080fd5b506004361061004c5760003560e01c806312065fe01461005157806327e235e31461006f5780638129fc1c146100c7578063d91921ed146100d1575b600080fd5b6100596100ff565b6040518082815260200191505060405180910390f35b6100b16004803603602081101561008557600080fd5b81019080803573ffffffffffffffffffffffffffffffffffffffff169060200190929190505050610146565b6040518082815260200191505060405180910390f35b6100cf61015e565b005b6100fd600480360360208110156100e757600080fd5b8101908080359060200190929190505050610222565b005b6000600160003373ffffffffffffffffffffffffffffffffffffffff1673ffffffffffffffffffffffffffffffffffffffff16815260200190815260200160002054905090565b60016020528060005260406000206000915090505481565b6000809054906101000a900473ffffffffffffffffffffffffffffffffffffffff1673ffffffffffffffffffffffffffffffffffffffff163373ffffffffffffffffffffffffffffffffffffffff1614610220576040517f08c379a00000000000000000000000000000000000000000000000000000000081526004018080602001828103825260108152602001807f44656c70686920464f5242494444454e0000000000000000000000000000000081525060200191505060405180910390fd5b565b80600160003373ffffffffffffffffffffffffffffffffffffffff1673ffffffffffffffffffffffffffffffffffffffff168152602001908152602001600020600082825401925050819055505056fea265627a7a72315820790059608381ec966b36a368a28bf4368910b0009a8bc70488901c827d06feb664736f6c63430005100032a265627a7a723158203f0a5f8daa13543d7ffe94c814397e6812e8ae112cb7a6f797cac1d727000aba64736f6c63430005100032",
  "source": "pragma solidity >=0.5.7;\n\nimport \"./interfaces/IERC20.sol\";\nimport \"./DelphiLiquidityFund.sol\";\n\ncontract DelphiFactory {\n    address[] public allFunds;\n\n    event FundCreated(address fund, uint256);\n\n    constructor() public {}\n\n    function createFund(uint256 token) external returns (address fund) {\n        bytes32 salt = keccak256(abi.encodePacked(token));\n        bytes memory bytecode = type(DelphiLiquidityFund).creationCode;\n        assembly {\n            fund := create2(0, add(bytecode, 0x20), mload(bytecode), salt)\n        }\n        IDelphiLiquidityFund(fund).initialize();\n        allFunds.push(fund);\n        emit FundCreated(fund, allFunds.length);\n    }\n\n    function getAllFunds() external view returns (address[] memory) {\n        return allFunds;\n    }\n}\n",
  "sourcePath": "/Users/jessekardas/Developer/Web3/DelphiFinance/contracts/DelphiFactory.sol",
  "compiler": {
    "name": "solc",
    "version": "0.5.16+commit.9c3226ce.Emscripten.clang"
  },
  "schemaVersion": "3.4.3",
  "updatedAt": "2021-11-14T04:38:07.650Z",
  "networkType": "ethereum",
  "devdoc": {
    "methods": {}
  },
  "userdoc": {
    "methods": {}
  }
}