{
  "contractName": "DelphiLiquidityFund",
  "abi": [
    {
      "inputs": [],
      "payable": false,
      "stateMutability": "nonpayable",
      "type": "constructor"
    },
    {
      "constant": true,
      "inputs": [
        {
          "internalType": "address",
          "name": "",
          "type": "address"
        }
      ],
      "name": "balances",
      "outputs": [
        {
          "internalType": "uint256",
          "name": "",
          "type": "uint256"
        }
      ],
      "payable": false,
      "stateMutability": "view",
      "type": "function"
    },
    {
      "constant": false,
      "inputs": [],
      "name": "initialize",
      "outputs": [],
      "payable": false,
      "stateMutability": "nonpayable",
      "type": "function"
    },
    {
      "constant": false,
      "inputs": [
        {
          "internalType": "uint256",
          "name": "amount",
          "type": "uint256"
        }
      ],
      "name": "addBalance",
      "outputs": [],
      "payable": false,
      "stateMutability": "nonpayable",
      "type": "function"
    },
    {
      "constant": true,
      "inputs": [],
      "name": "getBalance",
      "outputs": [
        {
          "internalType": "uint256",
          "name": "",
          "type": "uint256"
        }
      ],
      "payable": false,
      "stateMutability": "view",
      "type": "function"
    }
  ],
  "bytecode": "0x608060405234801561001057600080fd5b50336000806101000a81548173ffffffffffffffffffffffffffffffffffffffff021916908373ffffffffffffffffffffffffffffffffffffffff1602179055506102a7806100606000396000f3fe608060405234801561001057600080fd5b506004361061004c5760003560e01c806312065fe01461005157806327e235e31461006f5780638129fc1c146100c7578063d91921ed146100d1575b600080fd5b6100596100ff565b6040518082815260200191505060405180910390f35b6100b16004803603602081101561008557600080fd5b81019080803573ffffffffffffffffffffffffffffffffffffffff169060200190929190505050610146565b6040518082815260200191505060405180910390f35b6100cf61015e565b005b6100fd600480360360208110156100e757600080fd5b8101908080359060200190929190505050610222565b005b6000600160003373ffffffffffffffffffffffffffffffffffffffff1673ffffffffffffffffffffffffffffffffffffffff16815260200190815260200160002054905090565b60016020528060005260406000206000915090505481565b6000809054906101000a900473ffffffffffffffffffffffffffffffffffffffff1673ffffffffffffffffffffffffffffffffffffffff163373ffffffffffffffffffffffffffffffffffffffff1614610220576040517f08c379a00000000000000000000000000000000000000000000000000000000081526004018080602001828103825260108152602001807f44656c70686920464f5242494444454e0000000000000000000000000000000081525060200191505060405180910390fd5b565b80600160003373ffffffffffffffffffffffffffffffffffffffff1673ffffffffffffffffffffffffffffffffffffffff168152602001908152602001600020600082825401925050819055505056fea265627a7a72315820790059608381ec966b36a368a28bf4368910b0009a8bc70488901c827d06feb664736f6c63430005100032",
  "source": "pragma solidity >=0.5.7;\n\nimport \"./interfaces/IDelphiLiquidityFund.sol\";\n\ncontract DelphiLiquidityFund is IDelphiLiquidityFund {\n    address factory;\n\n    mapping(address => uint256) public balances;\n\n    constructor() public {\n        factory = msg.sender;\n    }\n\n    function initialize() external {\n        require(msg.sender == factory, \"Delphi FORBIDDEN\");\n    }\n\n    function addBalance(uint256 amount) public {\n        balances[msg.sender] += amount;\n    }\n\n    function getBalance() public view returns (uint256) {\n        return balances[msg.sender];\n    }\n}\n",
  "sourcePath": "/Users/jessekardas/Developer/Web3/DelphiFinance/contracts/DelphiLiquidityFund.sol",
  "compiler": {
    "name": "solc",
    "version": "0.5.16+commit.9c3226ce.Emscripten.clang"
  },
  "schemaVersion": "3.4.3",
  "updatedAt": "2021-11-14T03:43:18.054Z",
  "devdoc": {
    "methods": {}
  },
  "userdoc": {
    "methods": {}
  }
}